{
  "_format": "hh-sol-artifact-1",
  "contractName": "PokemonNFT",
  "sourceName": "src/contracts/PokemonNFT.sol",
  "abi": [
    {
      "inputs": [],
      "stateMutability": "nonpayable",
      "type": "constructor"
    },
    {
      "anonymous": false,
      "inputs": [
        {
          "indexed": true,
          "internalType": "address",
          "name": "owner",
          "type": "address"
        },
        {
          "indexed": true,
          "internalType": "address",
          "name": "approved",
          "type": "address"
        },
        {
          "indexed": true,
          "internalType": "uint256",
          "name": "tokenId",
          "type": "uint256"
        }
      ],
      "name": "Approval",
      "type": "event"
    },
    {
      "anonymous": false,
      "inputs": [
        {
          "indexed": true,
          "internalType": "address",
          "name": "owner",
          "type": "address"
        },
        {
          "indexed": true,
          "internalType": "address",
          "name": "operator",
          "type": "address"
        },
        {
          "indexed": false,
          "internalType": "bool",
          "name": "approved",
          "type": "bool"
        }
      ],
      "name": "ApprovalForAll",
      "type": "event"
    },
    {
      "anonymous": false,
      "inputs": [
        {
          "indexed": false,
          "internalType": "uint256",
          "name": "_fromTokenId",
          "type": "uint256"
        },
        {
          "indexed": false,
          "internalType": "uint256",
          "name": "_toTokenId",
          "type": "uint256"
        }
      ],
      "name": "BatchMetadataUpdate",
      "type": "event"
    },
    {
      "anonymous": false,
      "inputs": [
        {
          "indexed": false,
          "internalType": "uint256",
          "name": "_tokenId",
          "type": "uint256"
        }
      ],
      "name": "MetadataUpdate",
      "type": "event"
    },
    {
      "anonymous": false,
      "inputs": [
        {
          "indexed": true,
          "internalType": "address",
          "name": "previousOwner",
          "type": "address"
        },
        {
          "indexed": true,
          "internalType": "address",
          "name": "newOwner",
          "type": "address"
        }
      ],
      "name": "OwnershipTransferred",
      "type": "event"
    },
    {
      "anonymous": false,
      "inputs": [
        {
          "indexed": true,
          "internalType": "uint256",
          "name": "tokenId",
          "type": "uint256"
        },
        {
          "indexed": true,
          "internalType": "address",
          "name": "owner",
          "type": "address"
        },
        {
          "indexed": false,
          "internalType": "uint256",
          "name": "pokemonId",
          "type": "uint256"
        },
        {
          "indexed": false,
          "internalType": "string",
          "name": "name",
          "type": "string"
        },
        {
          "indexed": false,
          "internalType": "string",
          "name": "rarity",
          "type": "string"
        },
        {
          "indexed": false,
          "internalType": "bool",
          "name": "shiny",
          "type": "bool"
        }
      ],
      "name": "PokemonMinted",
      "type": "event"
    },
    {
      "anonymous": false,
      "inputs": [
        {
          "indexed": true,
          "internalType": "address",
          "name": "from",
          "type": "address"
        },
        {
          "indexed": true,
          "internalType": "address",
          "name": "to",
          "type": "address"
        },
        {
          "indexed": true,
          "internalType": "uint256",
          "name": "tokenId",
          "type": "uint256"
        }
      ],
      "name": "Transfer",
      "type": "event"
    },
    {
      "inputs": [
        {
          "internalType": "address",
          "name": "to",
          "type": "address"
        },
        {
          "internalType": "uint256",
          "name": "tokenId",
          "type": "uint256"
        }
      ],
      "name": "approve",
      "outputs": [],
      "stateMutability": "nonpayable",
      "type": "function"
    },
    {
      "inputs": [
        {
          "internalType": "address",
          "name": "owner",
          "type": "address"
        }
      ],
      "name": "balanceOf",
      "outputs": [
        {
          "internalType": "uint256",
          "name": "",
          "type": "uint256"
        }
      ],
      "stateMutability": "view",
      "type": "function"
    },
    {
      "inputs": [
        {
          "internalType": "uint256",
          "name": "tokenId",
          "type": "uint256"
        }
      ],
      "name": "getApproved",
      "outputs": [
        {
          "internalType": "address",
          "name": "",
          "type": "address"
        }
      ],
      "stateMutability": "view",
      "type": "function"
    },
    {
      "inputs": [
        {
          "internalType": "uint256",
          "name": "tokenId",
          "type": "uint256"
        }
      ],
      "name": "getPokemonDetails",
      "outputs": [
        {
          "internalType": "uint256",
          "name": "id",
          "type": "uint256"
        },
        {
          "internalType": "string",
          "name": "name",
          "type": "string"
        },
        {
          "internalType": "string",
          "name": "rarity",
          "type": "string"
        },
        {
          "internalType": "bool",
          "name": "shiny",
          "type": "bool"
        }
      ],
      "stateMutability": "view",
      "type": "function"
    },
    {
      "inputs": [
        {
          "internalType": "address",
          "name": "owner",
          "type": "address"
        }
      ],
      "name": "getTokensOfOwner",
      "outputs": [
        {
          "internalType": "uint256[]",
          "name": "",
          "type": "uint256[]"
        }
      ],
      "stateMutability": "view",
      "type": "function"
    },
    {
      "inputs": [
        {
          "internalType": "address",
          "name": "owner",
          "type": "address"
        },
        {
          "internalType": "address",
          "name": "operator",
          "type": "address"
        }
      ],
      "name": "isApprovedForAll",
      "outputs": [
        {
          "internalType": "bool",
          "name": "",
          "type": "bool"
        }
      ],
      "stateMutability": "view",
      "type": "function"
    },
    {
      "inputs": [
        {
          "internalType": "address",
          "name": "to",
          "type": "address"
        },
        {
          "internalType": "string",
          "name": "uri",
          "type": "string"
        },
        {
          "internalType": "uint256",
          "name": "pokemonId",
          "type": "uint256"
        },
        {
          "internalType": "string",
          "name": "name",
          "type": "string"
        },
        {
          "internalType": "string",
          "name": "rarity",
          "type": "string"
        },
        {
          "internalType": "bool",
          "name": "shiny",
          "type": "bool"
        }
      ],
      "name": "mintPokemon",
      "outputs": [
        {
          "internalType": "uint256",
          "name": "",
          "type": "uint256"
        }
      ],
      "stateMutability": "nonpayable",
      "type": "function"
    },
    {
      "inputs": [],
      "name": "name",
      "outputs": [
        {
          "internalType": "string",
          "name": "",
          "type": "string"
        }
      ],
      "stateMutability": "view",
      "type": "function"
    },
    {
      "inputs": [],
      "name": "owner",
      "outputs": [
        {
          "internalType": "address",
          "name": "",
          "type": "address"
        }
      ],
      "stateMutability": "view",
      "type": "function"
    },
    {
      "inputs": [
        {
          "internalType": "uint256",
          "name": "tokenId",
          "type": "uint256"
        }
      ],
      "name": "ownerOf",
      "outputs": [
        {
          "internalType": "address",
          "name": "",
          "type": "address"
        }
      ],
      "stateMutability": "view",
      "type": "function"
    },
    {
      "inputs": [
        {
          "internalType": "uint256",
          "name": "",
          "type": "uint256"
        }
      ],
      "name": "pokemonDetails",
      "outputs": [
        {
          "internalType": "uint256",
          "name": "id",
          "type": "uint256"
        },
        {
          "internalType": "string",
          "name": "name",
          "type": "string"
        },
        {
          "internalType": "string",
          "name": "rarity",
          "type": "string"
        },
        {
          "internalType": "bool",
          "name": "shiny",
          "type": "bool"
        }
      ],
      "stateMutability": "view",
      "type": "function"
    },
    {
      "inputs": [],
      "name": "renounceOwnership",
      "outputs": [],
      "stateMutability": "nonpayable",
      "type": "function"
    },
    {
      "inputs": [
        {
          "internalType": "address",
          "name": "from",
          "type": "address"
        },
        {
          "internalType": "address",
          "name": "to",
          "type": "address"
        },
        {
          "internalType": "uint256",
          "name": "tokenId",
          "type": "uint256"
        }
      ],
      "name": "safeTransferFrom",
      "outputs": [],
      "stateMutability": "nonpayable",
      "type": "function"
    },
    {
      "inputs": [
        {
          "internalType": "address",
          "name": "from",
          "type": "address"
        },
        {
          "internalType": "address",
          "name": "to",
          "type": "address"
        },
        {
          "internalType": "uint256",
          "name": "tokenId",
          "type": "uint256"
        },
        {
          "internalType": "bytes",
          "name": "data",
          "type": "bytes"
        }
      ],
      "name": "safeTransferFrom",
      "outputs": [],
      "stateMutability": "nonpayable",
      "type": "function"
    },
    {
      "inputs": [
        {
          "internalType": "address",
          "name": "operator",
          "type": "address"
        },
        {
          "internalType": "bool",
          "name": "approved",
          "type": "bool"
        }
      ],
      "name": "setApprovalForAll",
      "outputs": [],
      "stateMutability": "nonpayable",
      "type": "function"
    },
    {
      "inputs": [
        {
          "internalType": "bytes4",
          "name": "interfaceId",
          "type": "bytes4"
        }
      ],
      "name": "supportsInterface",
      "outputs": [
        {
          "internalType": "bool",
          "name": "",
          "type": "bool"
        }
      ],
      "stateMutability": "view",
      "type": "function"
    },
    {
      "inputs": [],
      "name": "symbol",
      "outputs": [
        {
          "internalType": "string",
          "name": "",
          "type": "string"
        }
      ],
      "stateMutability": "view",
      "type": "function"
    },
    {
      "inputs": [
        {
          "internalType": "uint256",
          "name": "index",
          "type": "uint256"
        }
      ],
      "name": "tokenByIndex",
      "outputs": [
        {
          "internalType": "uint256",
          "name": "",
          "type": "uint256"
        }
      ],
      "stateMutability": "view",
      "type": "function"
    },
    {
      "inputs": [
        {
          "internalType": "address",
          "name": "owner",
          "type": "address"
        },
        {
          "internalType": "uint256",
          "name": "index",
          "type": "uint256"
        }
      ],
      "name": "tokenOfOwnerByIndex",
      "outputs": [
        {
          "internalType": "uint256",
          "name": "",
          "type": "uint256"
        }
      ],
      "stateMutability": "view",
      "type": "function"
    },
    {
      "inputs": [
        {
          "internalType": "uint256",
          "name": "tokenId",
          "type": "uint256"
        }
      ],
      "name": "tokenURI",
      "outputs": [
        {
          "internalType": "string",
          "name": "",
          "type": "string"
        }
      ],
      "stateMutability": "view",
      "type": "function"
    },
    {
      "inputs": [],
      "name": "totalSupply",
      "outputs": [
        {
          "internalType": "uint256",
          "name": "",
          "type": "uint256"
        }
      ],
      "stateMutability": "view",
      "type": "function"
    },
    {
      "inputs": [
        {
          "internalType": "address",
          "name": "from",
          "type": "address"
        },
        {
          "internalType": "address",
          "name": "to",
          "type": "address"
        },
        {
          "internalType": "uint256",
          "name": "tokenId",
          "type": "uint256"
        }
      ],
      "name": "transferFrom",
      "outputs": [],
      "stateMutability": "nonpayable",
      "type": "function"
    },
    {
      "inputs": [
        {
          "internalType": "address",
          "name": "newOwner",
          "type": "address"
        }
      ],
      "name": "transferOwnership",
      "outputs": [],
      "stateMutability": "nonpayable",
      "type": "function"
    }
  ],
  "bytecode": "0x60806040523480156200001157600080fd5b506040518060400160405280600a81526020017f506f6b656d6f6e4e4654000000000000000000000000000000000000000000008152506040518060400160405280600481526020017f504b4d4e0000000000000000000000000000000000000000000000000000000081525081600090816200008f919062000412565b508060019081620000a1919062000412565b505050620000c4620000b8620000ca60201b60201c565b620000d260201b60201c565b620004f9565b600033905090565b6000600b60009054906101000a900473ffffffffffffffffffffffffffffffffffffffff16905081600b60006101000a81548173ffffffffffffffffffffffffffffffffffffffff021916908373ffffffffffffffffffffffffffffffffffffffff1602179055508173ffffffffffffffffffffffffffffffffffffffff168173ffffffffffffffffffffffffffffffffffffffff167f8be0079c531659141344cd1fd0a4f28419497f9722a3daafe3b4186f6b6457e060405160405180910390a35050565b600081519050919050565b7f4e487b7100000000000000000000000000000000000000000000000000000000600052604160045260246000fd5b7f4e487b7100000000000000000000000000000000000000000000000000000000600052602260045260246000fd5b600060028204905060018216806200021a57607f821691505b60208210810362000230576200022f620001d2565b5b50919050565b60008190508160005260206000209050919050565b60006020601f8301049050919050565b600082821b905092915050565b6000600883026200029a7fffffffffffffffffffffffffffffffffffffffffffffffffffffffffffffffff826200025b565b620002a686836200025b565b95508019841693508086168417925050509392505050565b6000819050919050565b6000819050919050565b6000620002f3620002ed620002e784620002be565b620002c8565b620002be565b9050919050565b6000819050919050565b6200030f83620002d2565b620003276200031e82620002fa565b84845462000268565b825550505050565b600090565b6200033e6200032f565b6200034b81848462000304565b505050565b5b8181101562000373576200036760008262000334565b60018101905062000351565b5050565b601f821115620003c2576200038c8162000236565b62000397846200024b565b81016020851015620003a7578190505b620003bf620003b6856200024b565b83018262000350565b50505b505050565b600082821c905092915050565b6000620003e760001984600802620003c7565b1980831691505092915050565b6000620004028383620003d4565b9150826002028217905092915050565b6200041d8262000198565b67ffffffffffffffff811115620004395762000438620001a3565b5b62000445825462000201565b6200045282828562000377565b600060209050601f8311600181146200048a576000841562000475578287015190505b620004818582620003f4565b865550620004f1565b601f1984166200049a8662000236565b60005b82811015620004c4578489015182556001820191506020850194506020810190506200049d565b86831015620004e45784890151620004e0601f891682620003d4565b8355505b6001600288020188555050505b505050505050565b61401880620005096000396000f3fe608060405234801561001057600080fd5b506004361061014d5760003560e01c80636352211e116100c3578063a22cb4651161007c578063a22cb465146103db578063b88d4fde146103f7578063c87b56dd14610413578063d79521e814610443578063e985e9c514610476578063f2fde38b146104a65761014d565b80636352211e1461030557806370a0823114610335578063715018a614610365578063793d68101461036f5780638da5cb5b1461039f57806395d89b41146103bd5761014d565b806323b872dd1161011557806323b872dd1461020a5780632f745c591461022657806342842e0e146102565780634e357c9d146102725780634f6ccce7146102a55780635de6dc55146102d55761014d565b806301ffc9a71461015257806306fdde0314610182578063081812fc146101a0578063095ea7b3146101d057806318160ddd146101ec575b600080fd5b61016c60048036038101906101679190612900565b6104c2565b6040516101799190612948565b60405180910390f35b61018a6104d4565b60405161019791906129f3565b60405180910390f35b6101ba60048036038101906101b59190612a4b565b610566565b6040516101c79190612ab9565b60405180910390f35b6101ea60048036038101906101e59190612b00565b6105ac565b005b6101f46106c3565b6040516102019190612b4f565b60405180910390f35b610224600480360381019061021f9190612b6a565b6106d0565b005b610240600480360381019061023b9190612b00565b610730565b60405161024d9190612b4f565b60405180910390f35b610270600480360381019061026b9190612b6a565b6107d5565b005b61028c60048036038101906102879190612a4b565b6107f5565b60405161029c9493929190612bbd565b60405180910390f35b6102bf60048036038101906102ba9190612a4b565b610942565b6040516102cc9190612b4f565b60405180910390f35b6102ef60048036038101906102ea9190612c10565b6109b3565b6040516102fc9190612cfb565b60405180910390f35b61031f600480360381019061031a9190612a4b565b610a61565b60405161032c9190612ab9565b60405180910390f35b61034f600480360381019061034a9190612c10565b610ae7565b60405161035c9190612b4f565b60405180910390f35b61036d610b9e565b005b61038960048036038101906103849190612e7e565b610bb2565b6040516103969190612b4f565b60405180910390f35b6103a7610cd2565b6040516103b49190612ab9565b60405180910390f35b6103c5610cfc565b6040516103d291906129f3565b60405180910390f35b6103f560048036038101906103f09190612f5f565b610d8e565b005b610411600480360381019061040c9190613040565b610da4565b005b61042d60048036038101906104289190612a4b565b610e06565b60405161043a91906129f3565b60405180910390f35b61045d60048036038101906104589190612a4b565b610e18565b60405161046d9493929190612bbd565b60405180910390f35b610490600480360381019061048b91906130c3565b610ff6565b60405161049d9190612948565b60405180910390f35b6104c060048036038101906104bb9190612c10565b61108a565b005b60006104cd8261110d565b9050919050565b6060600080546104e390613132565b80601f016020809104026020016040519081016040528092919081815260200182805461050f90613132565b801561055c5780601f106105315761010080835404028352916020019161055c565b820191906000526020600020905b81548152906001019060200180831161053f57829003601f168201915b5050505050905090565b600061057182611187565b6004600083815260200190815260200160002060009054906101000a900473ffffffffffffffffffffffffffffffffffffffff169050919050565b60006105b782610a61565b90508073ffffffffffffffffffffffffffffffffffffffff168373ffffffffffffffffffffffffffffffffffffffff1603610627576040517f08c379a000000000000000000000000000000000000000000000000000000000815260040161061e906131d5565b60405180910390fd5b8073ffffffffffffffffffffffffffffffffffffffff166106466111d2565b73ffffffffffffffffffffffffffffffffffffffff16148061067557506106748161066f6111d2565b610ff6565b5b6106b4576040517f08c379a00000000000000000000000000000000000000000000000000000000081526004016106ab90613267565b60405180910390fd5b6106be83836111da565b505050565b6000600980549050905090565b6106e16106db6111d2565b82611293565b610720576040517f08c379a0000000000000000000000000000000000000000000000000000000008152600401610717906132f9565b60405180910390fd5b61072b838383611328565b505050565b600061073b83610ae7565b821061077c576040517f08c379a00000000000000000000000000000000000000000000000000000000081526004016107739061338b565b60405180910390fd5b600760008473ffffffffffffffffffffffffffffffffffffffff1673ffffffffffffffffffffffffffffffffffffffff168152602001908152602001600020600083815260200190815260200160002054905092915050565b6107f083838360405180602001604052806000815250610da4565b505050565b600d60205280600052604060002060009150905080600001549080600101805461081e90613132565b80601f016020809104026020016040519081016040528092919081815260200182805461084a90613132565b80156108975780601f1061086c57610100808354040283529160200191610897565b820191906000526020600020905b81548152906001019060200180831161087a57829003601f168201915b5050505050908060020180546108ac90613132565b80601f01602080910402602001604051908101604052809291908181526020018280546108d890613132565b80156109255780601f106108fa57610100808354040283529160200191610925565b820191906000526020600020905b81548152906001019060200180831161090857829003601f168201915b5050505050908060030160009054906101000a900460ff16905084565b600061094c6106c3565b821061098d576040517f08c379a00000000000000000000000000000000000000000000000000000000081526004016109849061341d565b60405180910390fd5b600982815481106109a1576109a061343d565b5b90600052602060002001549050919050565b606060006109c083610ae7565b905060008167ffffffffffffffff8111156109de576109dd612d27565b5b604051908082528060200260200182016040528015610a0c5781602001602082028036833780820191505090505b50905060005b82811015610a5657610a248582610730565b828281518110610a3757610a3661343d565b5b6020026020010181815250508080610a4e9061349b565b915050610a12565b508092505050919050565b600080610a6d83611621565b9050600073ffffffffffffffffffffffffffffffffffffffff168173ffffffffffffffffffffffffffffffffffffffff1603610ade576040517f08c379a0000000000000000000000000000000000000000000000000000000008152600401610ad59061352f565b60405180910390fd5b80915050919050565b60008073ffffffffffffffffffffffffffffffffffffffff168273ffffffffffffffffffffffffffffffffffffffff1603610b57576040517f08c379a0000000000000000000000000000000000000000000000000000000008152600401610b4e906135c1565b60405180910390fd5b600360008373ffffffffffffffffffffffffffffffffffffffff1673ffffffffffffffffffffffffffffffffffffffff168152602001908152602001600020549050919050565b610ba661165e565b610bb060006116dc565b565b6000610bbe600c6117a2565b6000610bca600c6117b8565b9050610bd688826117c6565b610be081886117e4565b6040518060800160405280878152602001868152602001858152602001841515815250600d6000838152602001908152602001600020600082015181600001556020820151816001019081610c35919061378d565b506040820151816002019081610c4b919061378d565b5060608201518160030160006101000a81548160ff0219169083151502179055509050508773ffffffffffffffffffffffffffffffffffffffff16817fda2f1dac3ddc748215b0901e41141a46714e849d8cd2366590b6864603e1ca3688888888604051610cbc9493929190612bbd565b60405180910390a3809150509695505050505050565b6000600b60009054906101000a900473ffffffffffffffffffffffffffffffffffffffff16905090565b606060018054610d0b90613132565b80601f0160208091040260200160405190810160405280929190818152602001828054610d3790613132565b8015610d845780601f10610d5957610100808354040283529160200191610d84565b820191906000526020600020905b815481529060010190602001808311610d6757829003601f168201915b5050505050905090565b610da0610d996111d2565b8383611888565b5050565b610db5610daf6111d2565b83611293565b610df4576040517f08c379a0000000000000000000000000000000000000000000000000000000008152600401610deb906132f9565b60405180910390fd5b610e00848484846119f4565b50505050565b6060610e1182611a50565b9050919050565b60006060806000610e2885611b62565b610e67576040517f08c379a0000000000000000000000000000000000000000000000000000000008152600401610e5e906138d1565b60405180910390fd5b6000600d600087815260200190815260200160002060405180608001604052908160008201548152602001600182018054610ea190613132565b80601f0160208091040260200160405190810160405280929190818152602001828054610ecd90613132565b8015610f1a5780601f10610eef57610100808354040283529160200191610f1a565b820191906000526020600020905b815481529060010190602001808311610efd57829003601f168201915b50505050508152602001600282018054610f3390613132565b80601f0160208091040260200160405190810160405280929190818152602001828054610f5f90613132565b8015610fac5780601f10610f8157610100808354040283529160200191610fac565b820191906000526020600020905b815481529060010190602001808311610f8f57829003601f168201915b505050505081526020016003820160009054906101000a900460ff161515151581525050905080600001518160200151826040015183606001519450945094509450509193509193565b6000600560008473ffffffffffffffffffffffffffffffffffffffff1673ffffffffffffffffffffffffffffffffffffffff16815260200190815260200160002060008373ffffffffffffffffffffffffffffffffffffffff1673ffffffffffffffffffffffffffffffffffffffff16815260200190815260200160002060009054906101000a900460ff16905092915050565b61109261165e565b600073ffffffffffffffffffffffffffffffffffffffff168173ffffffffffffffffffffffffffffffffffffffff1603611101576040517f08c379a00000000000000000000000000000000000000000000000000000000081526004016110f890613963565b60405180910390fd5b61110a816116dc565b50565b60007f780e9d63000000000000000000000000000000000000000000000000000000007bffffffffffffffffffffffffffffffffffffffffffffffffffffffff1916827bffffffffffffffffffffffffffffffffffffffffffffffffffffffff19161480611180575061117f82611ba3565b5b9050919050565b61119081611b62565b6111cf576040517f08c379a00000000000000000000000000000000000000000000000000000000081526004016111c69061352f565b60405180910390fd5b50565b600033905090565b816004600083815260200190815260200160002060006101000a81548173ffffffffffffffffffffffffffffffffffffffff021916908373ffffffffffffffffffffffffffffffffffffffff160217905550808273ffffffffffffffffffffffffffffffffffffffff1661124d83610a61565b73ffffffffffffffffffffffffffffffffffffffff167f8c5be1e5ebec7d5bd14f71427d1e84f3dd0314c0f7b2291e5b200ac8c7c3b92560405160405180910390a45050565b60008061129f83610a61565b90508073ffffffffffffffffffffffffffffffffffffffff168473ffffffffffffffffffffffffffffffffffffffff1614806112e157506112e08185610ff6565b5b8061131f57508373ffffffffffffffffffffffffffffffffffffffff1661130784610566565b73ffffffffffffffffffffffffffffffffffffffff16145b91505092915050565b8273ffffffffffffffffffffffffffffffffffffffff1661134882610a61565b73ffffffffffffffffffffffffffffffffffffffff161461139e576040517f08c379a0000000000000000000000000000000000000000000000000000000008152600401611395906139f5565b60405180910390fd5b600073ffffffffffffffffffffffffffffffffffffffff168273ffffffffffffffffffffffffffffffffffffffff160361140d576040517f08c379a000000000000000000000000000000000000000000000000000000000815260040161140490613a87565b60405180910390fd5b61141a8383836001611c04565b8273ffffffffffffffffffffffffffffffffffffffff1661143a82610a61565b73ffffffffffffffffffffffffffffffffffffffff1614611490576040517f08c379a0000000000000000000000000000000000000000000000000000000008152600401611487906139f5565b60405180910390fd5b6004600082815260200190815260200160002060006101000a81549073ffffffffffffffffffffffffffffffffffffffff02191690556001600360008573ffffffffffffffffffffffffffffffffffffffff1673ffffffffffffffffffffffffffffffffffffffff168152602001908152602001600020600082825403925050819055506001600360008473ffffffffffffffffffffffffffffffffffffffff1673ffffffffffffffffffffffffffffffffffffffff16815260200190815260200160002060008282540192505081905550816002600083815260200190815260200160002060006101000a81548173ffffffffffffffffffffffffffffffffffffffff021916908373ffffffffffffffffffffffffffffffffffffffff160217905550808273ffffffffffffffffffffffffffffffffffffffff168473ffffffffffffffffffffffffffffffffffffffff167fddf252ad1be2c89b69c2b068fc378daa952ba7f163c4a11628f55a4df523b3ef60405160405180910390a461161c8383836001611c16565b505050565b60006002600083815260200190815260200160002060009054906101000a900473ffffffffffffffffffffffffffffffffffffffff169050919050565b6116666111d2565b73ffffffffffffffffffffffffffffffffffffffff16611684610cd2565b73ffffffffffffffffffffffffffffffffffffffff16146116da576040517f08c379a00000000000000000000000000000000000000000000000000000000081526004016116d190613af3565b60405180910390fd5b565b6000600b60009054906101000a900473ffffffffffffffffffffffffffffffffffffffff16905081600b60006101000a81548173ffffffffffffffffffffffffffffffffffffffff021916908373ffffffffffffffffffffffffffffffffffffffff1602179055508173ffffffffffffffffffffffffffffffffffffffff168173ffffffffffffffffffffffffffffffffffffffff167f8be0079c531659141344cd1fd0a4f28419497f9722a3daafe3b4186f6b6457e060405160405180910390a35050565b6001816000016000828254019250508190555050565b600081600001549050919050565b6117e0828260405180602001604052806000815250611c1c565b5050565b6117ed82611b62565b61182c576040517f08c379a000000000000000000000000000000000000000000000000000000000815260040161182390613b85565b60405180910390fd5b8060066000848152602001908152602001600020908161184c919061378d565b507ff8e1a15aba9398e019f0b49df1a4fde98ee17ae345cb5f6b5e2c27f5033e8ce78260405161187c9190612b4f565b60405180910390a15050565b8173ffffffffffffffffffffffffffffffffffffffff168373ffffffffffffffffffffffffffffffffffffffff16036118f6576040517f08c379a00000000000000000000000000000000000000000000000000000000081526004016118ed90613bf1565b60405180910390fd5b80600560008573ffffffffffffffffffffffffffffffffffffffff1673ffffffffffffffffffffffffffffffffffffffff16815260200190815260200160002060008473ffffffffffffffffffffffffffffffffffffffff1673ffffffffffffffffffffffffffffffffffffffff16815260200190815260200160002060006101000a81548160ff0219169083151502179055508173ffffffffffffffffffffffffffffffffffffffff168373ffffffffffffffffffffffffffffffffffffffff167f17307eab39ab6107e8899845ad3d59bd9653f200f220920489ca2b5937696c31836040516119e79190612948565b60405180910390a3505050565b6119ff848484611328565b611a0b84848484611c77565b611a4a576040517f08c379a0000000000000000000000000000000000000000000000000000000008152600401611a4190613c83565b60405180910390fd5b50505050565b6060611a5b82611187565b6000600660008481526020019081526020016000208054611a7b90613132565b80601f0160208091040260200160405190810160405280929190818152602001828054611aa790613132565b8015611af45780601f10611ac957610100808354040283529160200191611af4565b820191906000526020600020905b815481529060010190602001808311611ad757829003601f168201915b505050505090506000611b05611dfe565b90506000815103611b1a578192505050611b5d565b600082511115611b4f578082604051602001611b37929190613cdf565b60405160208183030381529060405292505050611b5d565b611b5884611e15565b925050505b919050565b60008073ffffffffffffffffffffffffffffffffffffffff16611b8483611621565b73ffffffffffffffffffffffffffffffffffffffff1614159050919050565b6000634906490660e01b7bffffffffffffffffffffffffffffffffffffffffffffffffffffffff1916827bffffffffffffffffffffffffffffffffffffffffffffffffffffffff19161480611bfd5750611bfc82611e7d565b5b9050919050565b611c1084848484611f5f565b50505050565b50505050565b611c2683836120bd565b611c336000848484611c77565b611c72576040517f08c379a0000000000000000000000000000000000000000000000000000000008152600401611c6990613c83565b60405180910390fd5b505050565b6000611c988473ffffffffffffffffffffffffffffffffffffffff166122da565b15611df1578373ffffffffffffffffffffffffffffffffffffffff1663150b7a02611cc16111d2565b8786866040518563ffffffff1660e01b8152600401611ce39493929190613d58565b6020604051808303816000875af1925050508015611d1f57506040513d601f19601f82011682018060405250810190611d1c9190613db9565b60015b611da1573d8060008114611d4f576040519150601f19603f3d011682016040523d82523d6000602084013e611d54565b606091505b506000815103611d99576040517f08c379a0000000000000000000000000000000000000000000000000000000008152600401611d9090613c83565b60405180910390fd5b805181602001fd5b63150b7a0260e01b7bffffffffffffffffffffffffffffffffffffffffffffffffffffffff1916817bffffffffffffffffffffffffffffffffffffffffffffffffffffffff191614915050611df6565b600190505b949350505050565b606060405180602001604052806000815250905090565b6060611e2082611187565b6000611e2a611dfe565b90506000815111611e4a5760405180602001604052806000815250611e75565b80611e54846122fd565b604051602001611e65929190613cdf565b6040516020818303038152906040525b915050919050565b60007f80ac58cd000000000000000000000000000000000000000000000000000000007bffffffffffffffffffffffffffffffffffffffffffffffffffffffff1916827bffffffffffffffffffffffffffffffffffffffffffffffffffffffff19161480611f4857507f5b5e139f000000000000000000000000000000000000000000000000000000007bffffffffffffffffffffffffffffffffffffffffffffffffffffffff1916827bffffffffffffffffffffffffffffffffffffffffffffffffffffffff1916145b80611f585750611f57826123cb565b5b9050919050565b611f6b84848484612435565b6001811115611faf576040517f08c379a0000000000000000000000000000000000000000000000000000000008152600401611fa690613e58565b60405180910390fd5b6000829050600073ffffffffffffffffffffffffffffffffffffffff168573ffffffffffffffffffffffffffffffffffffffff1603611ff657611ff18161243b565b612035565b8373ffffffffffffffffffffffffffffffffffffffff168573ffffffffffffffffffffffffffffffffffffffff1614612034576120338582612484565b5b5b600073ffffffffffffffffffffffffffffffffffffffff168473ffffffffffffffffffffffffffffffffffffffff160361207757612072816125f1565b6120b6565b8473ffffffffffffffffffffffffffffffffffffffff168473ffffffffffffffffffffffffffffffffffffffff16146120b5576120b484826126c2565b5b5b5050505050565b600073ffffffffffffffffffffffffffffffffffffffff168273ffffffffffffffffffffffffffffffffffffffff160361212c576040517f08c379a000000000000000000000000000000000000000000000000000000000815260040161212390613ec4565b60405180910390fd5b61213581611b62565b15612175576040517f08c379a000000000000000000000000000000000000000000000000000000000815260040161216c90613f30565b60405180910390fd5b612183600083836001611c04565b61218c81611b62565b156121cc576040517f08c379a00000000000000000000000000000000000000000000000000000000081526004016121c390613f30565b60405180910390fd5b6001600360008473ffffffffffffffffffffffffffffffffffffffff1673ffffffffffffffffffffffffffffffffffffffff16815260200190815260200160002060008282540192505081905550816002600083815260200190815260200160002060006101000a81548173ffffffffffffffffffffffffffffffffffffffff021916908373ffffffffffffffffffffffffffffffffffffffff160217905550808273ffffffffffffffffffffffffffffffffffffffff16600073ffffffffffffffffffffffffffffffffffffffff167fddf252ad1be2c89b69c2b068fc378daa952ba7f163c4a11628f55a4df523b3ef60405160405180910390a46122d6600083836001611c16565b5050565b6000808273ffffffffffffffffffffffffffffffffffffffff163b119050919050565b60606000600161230c84612741565b01905060008167ffffffffffffffff81111561232b5761232a612d27565b5b6040519080825280601f01601f19166020018201604052801561235d5781602001600182028036833780820191505090505b509050600082602001820190505b6001156123c0578080600190039150507f3031323334353637383961626364656600000000000000000000000000000000600a86061a8153600a85816123b4576123b3613f50565b5b0494506000850361236b575b819350505050919050565b60007f01ffc9a7000000000000000000000000000000000000000000000000000000007bffffffffffffffffffffffffffffffffffffffffffffffffffffffff1916827bffffffffffffffffffffffffffffffffffffffffffffffffffffffff1916149050919050565b50505050565b600980549050600a600083815260200190815260200160002081905550600981908060018154018082558091505060019003906000526020600020016000909190919091505550565b6000600161249184610ae7565b61249b9190613f7f565b9050600060086000848152602001908152602001600020549050818114612580576000600760008673ffffffffffffffffffffffffffffffffffffffff1673ffffffffffffffffffffffffffffffffffffffff168152602001908152602001600020600084815260200190815260200160002054905080600760008773ffffffffffffffffffffffffffffffffffffffff1673ffffffffffffffffffffffffffffffffffffffff168152602001908152602001600020600084815260200190815260200160002081905550816008600083815260200190815260200160002081905550505b6008600084815260200190815260200160002060009055600760008573ffffffffffffffffffffffffffffffffffffffff1673ffffffffffffffffffffffffffffffffffffffff16815260200190815260200160002060008381526020019081526020016000206000905550505050565b600060016009805490506126059190613f7f565b90506000600a60008481526020019081526020016000205490506000600983815481106126355761263461343d565b5b9060005260206000200154905080600983815481106126575761265661343d565b5b906000526020600020018190555081600a600083815260200190815260200160002081905550600a60008581526020019081526020016000206000905560098054806126a6576126a5613fb3565b5b6001900381819060005260206000200160009055905550505050565b60006126cd83610ae7565b905081600760008573ffffffffffffffffffffffffffffffffffffffff1673ffffffffffffffffffffffffffffffffffffffff168152602001908152602001600020600083815260200190815260200160002081905550806008600084815260200190815260200160002081905550505050565b600080600090507a184f03e93ff9f4daa797ed6e38ed64bf6a1f010000000000000000831061279f577a184f03e93ff9f4daa797ed6e38ed64bf6a1f010000000000000000838161279557612794613f50565b5b0492506040810190505b6d04ee2d6d415b85acef810000000083106127dc576d04ee2d6d415b85acef810000000083816127d2576127d1613f50565b5b0492506020810190505b662386f26fc10000831061280b57662386f26fc10000838161280157612800613f50565b5b0492506010810190505b6305f5e1008310612834576305f5e100838161282a57612829613f50565b5b0492506008810190505b612710831061285957612710838161284f5761284e613f50565b5b0492506004810190505b6064831061287c576064838161287257612871613f50565b5b0492506002810190505b600a831061288b576001810190505b80915050919050565b6000604051905090565b600080fd5b600080fd5b60007fffffffff0000000000000000000000000000000000000000000000000000000082169050919050565b6128dd816128a8565b81146128e857600080fd5b50565b6000813590506128fa816128d4565b92915050565b6000602082840312156129165761291561289e565b5b6000612924848285016128eb565b91505092915050565b60008115159050919050565b6129428161292d565b82525050565b600060208201905061295d6000830184612939565b92915050565b600081519050919050565b600082825260208201905092915050565b60005b8381101561299d578082015181840152602081019050612982565b60008484015250505050565b6000601f19601f8301169050919050565b60006129c582612963565b6129cf818561296e565b93506129df81856020860161297f565b6129e8816129a9565b840191505092915050565b60006020820190508181036000830152612a0d81846129ba565b905092915050565b6000819050919050565b612a2881612a15565b8114612a3357600080fd5b50565b600081359050612a4581612a1f565b92915050565b600060208284031215612a6157612a6061289e565b5b6000612a6f84828501612a36565b91505092915050565b600073ffffffffffffffffffffffffffffffffffffffff82169050919050565b6000612aa382612a78565b9050919050565b612ab381612a98565b82525050565b6000602082019050612ace6000830184612aaa565b92915050565b612add81612a98565b8114612ae857600080fd5b50565b600081359050612afa81612ad4565b92915050565b60008060408385031215612b1757612b1661289e565b5b6000612b2585828601612aeb565b9250506020612b3685828601612a36565b9150509250929050565b612b4981612a15565b82525050565b6000602082019050612b646000830184612b40565b92915050565b600080600060608486031215612b8357612b8261289e565b5b6000612b9186828701612aeb565b9350506020612ba286828701612aeb565b9250506040612bb386828701612a36565b9150509250925092565b6000608082019050612bd26000830187612b40565b8181036020830152612be481866129ba565b90508181036040830152612bf881856129ba565b9050612c076060830184612939565b95945050505050565b600060208284031215612c2657612c2561289e565b5b6000612c3484828501612aeb565b91505092915050565b600081519050919050565b600082825260208201905092915050565b6000819050602082019050919050565b612c7281612a15565b82525050565b6000612c848383612c69565b60208301905092915050565b6000602082019050919050565b6000612ca882612c3d565b612cb28185612c48565b9350612cbd83612c59565b8060005b83811015612cee578151612cd58882612c78565b9750612ce083612c90565b925050600181019050612cc1565b5085935050505092915050565b60006020820190508181036000830152612d158184612c9d565b905092915050565b600080fd5b600080fd5b7f4e487b7100000000000000000000000000000000000000000000000000000000600052604160045260246000fd5b612d5f826129a9565b810181811067ffffffffffffffff82111715612d7e57612d7d612d27565b5b80604052505050565b6000612d91612894565b9050612d9d8282612d56565b919050565b600067ffffffffffffffff821115612dbd57612dbc612d27565b5b612dc6826129a9565b9050602081019050919050565b82818337600083830152505050565b6000612df5612df084612da2565b612d87565b905082815260208101848484011115612e1157612e10612d22565b5b612e1c848285612dd3565b509392505050565b600082601f830112612e3957612e38612d1d565b5b8135612e49848260208601612de2565b91505092915050565b612e5b8161292d565b8114612e6657600080fd5b50565b600081359050612e7881612e52565b92915050565b60008060008060008060c08789031215612e9b57612e9a61289e565b5b6000612ea989828a01612aeb565b965050602087013567ffffffffffffffff811115612eca57612ec96128a3565b5b612ed689828a01612e24565b9550506040612ee789828a01612a36565b945050606087013567ffffffffffffffff811115612f0857612f076128a3565b5b612f1489828a01612e24565b935050608087013567ffffffffffffffff811115612f3557612f346128a3565b5b612f4189828a01612e24565b92505060a0612f5289828a01612e69565b9150509295509295509295565b60008060408385031215612f7657612f7561289e565b5b6000612f8485828601612aeb565b9250506020612f9585828601612e69565b9150509250929050565b600067ffffffffffffffff821115612fba57612fb9612d27565b5b612fc3826129a9565b9050602081019050919050565b6000612fe3612fde84612f9f565b612d87565b905082815260208101848484011115612fff57612ffe612d22565b5b61300a848285612dd3565b509392505050565b600082601f83011261302757613026612d1d565b5b8135613037848260208601612fd0565b91505092915050565b6000806000806080858703121561305a5761305961289e565b5b600061306887828801612aeb565b945050602061307987828801612aeb565b935050604061308a87828801612a36565b925050606085013567ffffffffffffffff8111156130ab576130aa6128a3565b5b6130b787828801613012565b91505092959194509250565b600080604083850312156130da576130d961289e565b5b60006130e885828601612aeb565b92505060206130f985828601612aeb565b9150509250929050565b7f4e487b7100000000000000000000000000000000000000000000000000000000600052602260045260246000fd5b6000600282049050600182168061314a57607f821691505b60208210810361315d5761315c613103565b5b50919050565b7f4552433732313a20617070726f76616c20746f2063757272656e74206f776e6560008201527f7200000000000000000000000000000000000000000000000000000000000000602082015250565b60006131bf60218361296e565b91506131ca82613163565b604082019050919050565b600060208201905081810360008301526131ee816131b2565b9050919050565b7f4552433732313a20617070726f76652063616c6c6572206973206e6f7420746f60008201527f6b656e206f776e6572206f7220617070726f76656420666f7220616c6c000000602082015250565b6000613251603d8361296e565b915061325c826131f5565b604082019050919050565b6000602082019050818103600083015261328081613244565b9050919050565b7f4552433732313a2063616c6c6572206973206e6f7420746f6b656e206f776e6560008201527f72206f7220617070726f76656400000000000000000000000000000000000000602082015250565b60006132e3602d8361296e565b91506132ee82613287565b604082019050919050565b60006020820190508181036000830152613312816132d6565b9050919050565b7f455243373231456e756d657261626c653a206f776e657220696e646578206f7560008201527f74206f6620626f756e6473000000000000000000000000000000000000000000602082015250565b6000613375602b8361296e565b915061338082613319565b604082019050919050565b600060208201905081810360008301526133a481613368565b9050919050565b7f455243373231456e756d657261626c653a20676c6f62616c20696e646578206f60008201527f7574206f6620626f756e64730000000000000000000000000000000000000000602082015250565b6000613407602c8361296e565b9150613412826133ab565b604082019050919050565b60006020820190508181036000830152613436816133fa565b9050919050565b7f4e487b7100000000000000000000000000000000000000000000000000000000600052603260045260246000fd5b7f4e487b7100000000000000000000000000000000000000000000000000000000600052601160045260246000fd5b60006134a682612a15565b91507fffffffffffffffffffffffffffffffffffffffffffffffffffffffffffffffff82036134d8576134d761346c565b5b600182019050919050565b7f4552433732313a20696e76616c696420746f6b656e2049440000000000000000600082015250565b600061351960188361296e565b9150613524826134e3565b602082019050919050565b600060208201905081810360008301526135488161350c565b9050919050565b7f4552433732313a2061646472657373207a65726f206973206e6f74206120766160008201527f6c6964206f776e65720000000000000000000000000000000000000000000000602082015250565b60006135ab60298361296e565b91506135b68261354f565b604082019050919050565b600060208201905081810360008301526135da8161359e565b9050919050565b60008190508160005260206000209050919050565b60006020601f8301049050919050565b600082821b905092915050565b6000600883026136437fffffffffffffffffffffffffffffffffffffffffffffffffffffffffffffffff82613606565b61364d8683613606565b95508019841693508086168417925050509392505050565b6000819050919050565b600061368a61368561368084612a15565b613665565b612a15565b9050919050565b6000819050919050565b6136a48361366f565b6136b86136b082613691565b848454613613565b825550505050565b600090565b6136cd6136c0565b6136d881848461369b565b505050565b5b818110156136fc576136f16000826136c5565b6001810190506136de565b5050565b601f82111561374157613712816135e1565b61371b846135f6565b8101602085101561372a578190505b61373e613736856135f6565b8301826136dd565b50505b505050565b600082821c905092915050565b600061376460001984600802613746565b1980831691505092915050565b600061377d8383613753565b9150826002028217905092915050565b61379682612963565b67ffffffffffffffff8111156137af576137ae612d27565b5b6137b98254613132565b6137c4828285613700565b600060209050601f8311600181146137f757600084156137e5578287015190505b6137ef8582613771565b865550613857565b601f198416613805866135e1565b60005b8281101561382d57848901518255600182019150602085019450602081019050613808565b8683101561384a5784890151613846601f891682613753565b8355505b6001600288020188555050505b505050505050565b7f506f6b656d6f6e4e46543a20517565727920666f72206e6f6e6578697374656e60008201527f7420746f6b656e00000000000000000000000000000000000000000000000000602082015250565b60006138bb60278361296e565b91506138c68261385f565b604082019050919050565b600060208201905081810360008301526138ea816138ae565b9050919050565b7f4f776e61626c653a206e6577206f776e657220697320746865207a65726f206160008201527f6464726573730000000000000000000000000000000000000000000000000000602082015250565b600061394d60268361296e565b9150613958826138f1565b604082019050919050565b6000602082019050818103600083015261397c81613940565b9050919050565b7f4552433732313a207472616e736665722066726f6d20696e636f72726563742060008201527f6f776e6572000000000000000000000000000000000000000000000000000000602082015250565b60006139df60258361296e565b91506139ea82613983565b604082019050919050565b60006020820190508181036000830152613a0e816139d2565b9050919050565b7f4552433732313a207472616e7366657220746f20746865207a65726f2061646460008201527f7265737300000000000000000000000000000000000000000000000000000000602082015250565b6000613a7160248361296e565b9150613a7c82613a15565b604082019050919050565b60006020820190508181036000830152613aa081613a64565b9050919050565b7f4f776e61626c653a2063616c6c6572206973206e6f7420746865206f776e6572600082015250565b6000613add60208361296e565b9150613ae882613aa7565b602082019050919050565b60006020820190508181036000830152613b0c81613ad0565b9050919050565b7f45524337323155524953746f726167653a2055524920736574206f66206e6f6e60008201527f6578697374656e7420746f6b656e000000000000000000000000000000000000602082015250565b6000613b6f602e8361296e565b9150613b7a82613b13565b604082019050919050565b60006020820190508181036000830152613b9e81613b62565b9050919050565b7f4552433732313a20617070726f766520746f2063616c6c657200000000000000600082015250565b6000613bdb60198361296e565b9150613be682613ba5565b602082019050919050565b60006020820190508181036000830152613c0a81613bce565b9050919050565b7f4552433732313a207472616e7366657220746f206e6f6e20455243373231526560008201527f63656976657220696d706c656d656e7465720000000000000000000000000000602082015250565b6000613c6d60328361296e565b9150613c7882613c11565b604082019050919050565b60006020820190508181036000830152613c9c81613c60565b9050919050565b600081905092915050565b6000613cb982612963565b613cc38185613ca3565b9350613cd381856020860161297f565b80840191505092915050565b6000613ceb8285613cae565b9150613cf78284613cae565b91508190509392505050565b600081519050919050565b600082825260208201905092915050565b6000613d2a82613d03565b613d348185613d0e565b9350613d4481856020860161297f565b613d4d816129a9565b840191505092915050565b6000608082019050613d6d6000830187612aaa565b613d7a6020830186612aaa565b613d876040830185612b40565b8181036060830152613d998184613d1f565b905095945050505050565b600081519050613db3816128d4565b92915050565b600060208284031215613dcf57613dce61289e565b5b6000613ddd84828501613da4565b91505092915050565b7f455243373231456e756d657261626c653a20636f6e736563757469766520747260008201527f616e7366657273206e6f7420737570706f727465640000000000000000000000602082015250565b6000613e4260358361296e565b9150613e4d82613de6565b604082019050919050565b60006020820190508181036000830152613e7181613e35565b9050919050565b7f4552433732313a206d696e7420746f20746865207a65726f2061646472657373600082015250565b6000613eae60208361296e565b9150613eb982613e78565b602082019050919050565b60006020820190508181036000830152613edd81613ea1565b9050919050565b7f4552433732313a20746f6b656e20616c7265616479206d696e74656400000000600082015250565b6000613f1a601c8361296e565b9150613f2582613ee4565b602082019050919050565b60006020820190508181036000830152613f4981613f0d565b9050919050565b7f4e487b7100000000000000000000000000000000000000000000000000000000600052601260045260246000fd5b6000613f8a82612a15565b9150613f9583612a15565b9250828203905081811115613fad57613fac61346c565b5b92915050565b7f4e487b7100000000000000000000000000000000000000000000000000000000600052603160045260246000fdfea26469706673582212206b760839f076e7a4c60e5321a7ad1d7d835e23e804768d96244e3290de70ea3664736f6c63430008130033",
  "linkReferences": {},
  "deployedLinkReferences": {}
}