{
  "_format": "hh-sol-artifact-1",
  "contractName": "PokemonMarketplace",
  "sourceName": "src/contracts/PokemonMarketplace.sol",
  "abi": [
    {
      "anonymous": false,
      "inputs": [
        {
          "indexed": true,
          "internalType": "uint256",
          "name": "itemId",
          "type": "uint256"
        },
        {
          "indexed": true,
          "internalType": "address",
          "name": "nftContract",
          "type": "address"
        },
        {
          "indexed": true,
          "internalType": "uint256",
          "name": "tokenId",
          "type": "uint256"
        },
        {
          "indexed": false,
          "internalType": "address",
          "name": "seller",
          "type": "address"
        },
        {
          "indexed": false,
          "internalType": "address",
          "name": "owner",
          "type": "address"
        },
        {
          "indexed": false,
          "internalType": "uint256",
          "name": "price",
          "type": "uint256"
        },
        {
          "indexed": false,
          "internalType": "bool",
          "name": "sold",
          "type": "bool"
        },
        {
          "indexed": false,
          "internalType": "uint256",
          "name": "listedAt",
          "type": "uint256"
        }
      ],
      "name": "MarketItemCreated",
      "type": "event"
    },
    {
      "anonymous": false,
      "inputs": [
        {
          "indexed": true,
          "internalType": "uint256",
          "name": "itemId",
          "type": "uint256"
        },
        {
          "indexed": true,
          "internalType": "address",
          "name": "nftContract",
          "type": "address"
        },
        {
          "indexed": true,
          "internalType": "uint256",
          "name": "tokenId",
          "type": "uint256"
        },
        {
          "indexed": false,
          "internalType": "address",
          "name": "seller",
          "type": "address"
        },
        {
          "indexed": false,
          "internalType": "address",
          "name": "owner",
          "type": "address"
        },
        {
          "indexed": false,
          "internalType": "uint256",
          "name": "price",
          "type": "uint256"
        }
      ],
      "name": "MarketItemSold",
      "type": "event"
    },
    {
      "anonymous": false,
      "inputs": [
        {
          "indexed": true,
          "internalType": "address",
          "name": "previousOwner",
          "type": "address"
        },
        {
          "indexed": true,
          "internalType": "address",
          "name": "newOwner",
          "type": "address"
        }
      ],
      "name": "OwnershipTransferred",
      "type": "event"
    },
    {
      "inputs": [],
      "name": "PERCENTAGE_DENOMINATOR",
      "outputs": [
        {
          "internalType": "uint256",
          "name": "",
          "type": "uint256"
        }
      ],
      "stateMutability": "view",
      "type": "function"
    },
    {
      "inputs": [
        {
          "internalType": "uint256",
          "name": "itemId",
          "type": "uint256"
        }
      ],
      "name": "cancelMarketItem",
      "outputs": [],
      "stateMutability": "nonpayable",
      "type": "function"
    },
    {
      "inputs": [
        {
          "internalType": "address",
          "name": "nftContract",
          "type": "address"
        },
        {
          "internalType": "uint256",
          "name": "tokenId",
          "type": "uint256"
        },
        {
          "internalType": "uint256",
          "name": "price",
          "type": "uint256"
        }
      ],
      "name": "createMarketItem",
      "outputs": [],
      "stateMutability": "nonpayable",
      "type": "function"
    },
    {
      "inputs": [
        {
          "internalType": "address",
          "name": "nftContract",
          "type": "address"
        },
        {
          "internalType": "uint256",
          "name": "itemId",
          "type": "uint256"
        }
      ],
      "name": "createMarketSale",
      "outputs": [],
      "stateMutability": "payable",
      "type": "function"
    },
    {
      "inputs": [],
      "name": "fetchItemsListed",
      "outputs": [
        {
          "components": [
            {
              "internalType": "uint256",
              "name": "itemId",
              "type": "uint256"
            },
            {
              "internalType": "address",
              "name": "nftContract",
              "type": "address"
            },
            {
              "internalType": "uint256",
              "name": "tokenId",
              "type": "uint256"
            },
            {
              "internalType": "address payable",
              "name": "seller",
              "type": "address"
            },
            {
              "internalType": "address payable",
              "name": "owner",
              "type": "address"
            },
            {
              "internalType": "uint256",
              "name": "price",
              "type": "uint256"
            },
            {
              "internalType": "bool",
              "name": "sold",
              "type": "bool"
            },
            {
              "internalType": "uint256",
              "name": "listedAt",
              "type": "uint256"
            }
          ],
          "internalType": "struct PokemonMarketplace.MarketItem[]",
          "name": "",
          "type": "tuple[]"
        }
      ],
      "stateMutability": "view",
      "type": "function"
    },
    {
      "inputs": [],
      "name": "fetchMarketItems",
      "outputs": [
        {
          "components": [
            {
              "internalType": "uint256",
              "name": "itemId",
              "type": "uint256"
            },
            {
              "internalType": "address",
              "name": "nftContract",
              "type": "address"
            },
            {
              "internalType": "uint256",
              "name": "tokenId",
              "type": "uint256"
            },
            {
              "internalType": "address payable",
              "name": "seller",
              "type": "address"
            },
            {
              "internalType": "address payable",
              "name": "owner",
              "type": "address"
            },
            {
              "internalType": "uint256",
              "name": "price",
              "type": "uint256"
            },
            {
              "internalType": "bool",
              "name": "sold",
              "type": "bool"
            },
            {
              "internalType": "uint256",
              "name": "listedAt",
              "type": "uint256"
            }
          ],
          "internalType": "struct PokemonMarketplace.MarketItem[]",
          "name": "",
          "type": "tuple[]"
        }
      ],
      "stateMutability": "view",
      "type": "function"
    },
    {
      "inputs": [],
      "name": "fetchMyNFTs",
      "outputs": [
        {
          "components": [
            {
              "internalType": "uint256",
              "name": "itemId",
              "type": "uint256"
            },
            {
              "internalType": "address",
              "name": "nftContract",
              "type": "address"
            },
            {
              "internalType": "uint256",
              "name": "tokenId",
              "type": "uint256"
            },
            {
              "internalType": "address payable",
              "name": "seller",
              "type": "address"
            },
            {
              "internalType": "address payable",
              "name": "owner",
              "type": "address"
            },
            {
              "internalType": "uint256",
              "name": "price",
              "type": "uint256"
            },
            {
              "internalType": "bool",
              "name": "sold",
              "type": "bool"
            },
            {
              "internalType": "uint256",
              "name": "listedAt",
              "type": "uint256"
            }
          ],
          "internalType": "struct PokemonMarketplace.MarketItem[]",
          "name": "",
          "type": "tuple[]"
        }
      ],
      "stateMutability": "view",
      "type": "function"
    },
    {
      "inputs": [],
      "name": "listingFeePercentage",
      "outputs": [
        {
          "internalType": "uint256",
          "name": "",
          "type": "uint256"
        }
      ],
      "stateMutability": "view",
      "type": "function"
    },
    {
      "inputs": [],
      "name": "owner",
      "outputs": [
        {
          "internalType": "address",
          "name": "",
          "type": "address"
        }
      ],
      "stateMutability": "view",
      "type": "function"
    },
    {
      "inputs": [],
      "name": "renounceOwnership",
      "outputs": [],
      "stateMutability": "nonpayable",
      "type": "function"
    },
    {
      "inputs": [
        {
          "internalType": "address",
          "name": "newOwner",
          "type": "address"
        }
      ],
      "name": "transferOwnership",
      "outputs": [],
      "stateMutability": "nonpayable",
      "type": "function"
    },
    {
      "inputs": [
        {
          "internalType": "uint256",
          "name": "_listingFeePercentage",
          "type": "uint256"
        }
      ],
      "name": "updateListingFeePercentage",
      "outputs": [],
      "stateMutability": "nonpayable",
      "type": "function"
    },
    {
      "inputs": [],
      "name": "withdrawFees",
      "outputs": [],
      "stateMutability": "nonpayable",
      "type": "function"
    }
  ],
  "bytecode": "0x608060405260fa6004553480156200001657600080fd5b5060016000819055506200003f620000336200004560201b60201c565b6200004d60201b60201c565b62000113565b600033905090565b6000600160009054906101000a900473ffffffffffffffffffffffffffffffffffffffff16905081600160006101000a81548173ffffffffffffffffffffffffffffffffffffffff021916908373ffffffffffffffffffffffffffffffffffffffff1602179055508173ffffffffffffffffffffffffffffffffffffffff168173ffffffffffffffffffffffffffffffffffffffff167f8be0079c531659141344cd1fd0a4f28419497f9722a3daafe3b4186f6b6457e060405160405180910390a35050565b6125bd80620001236000396000f3fe6080604052600436106100c25760003560e01c806358eb2df51161007f578063a6e22b0211610059578063a6e22b021461021e578063b3cd425414610247578063c23b139e14610272578063f2fde38b1461028e576100c2565b806358eb2df5146101b3578063715018a6146101dc5780638da5cb5b146101f3576100c2565b806301bb8cc5146100c75780630888de39146100f05780630f08efe01461011b578063202e37401461014657806345f8fa8014610171578063476343ee1461019c575b600080fd5b3480156100d357600080fd5b506100ee60048036038101906100e9919061197f565b6102b7565b005b3480156100fc57600080fd5b5061010561030e565b60405161011291906119bb565b60405180910390f35b34801561012757600080fd5b50610130610314565b60405161013d9190611bb4565b60405180910390f35b34801561015257600080fd5b5061015b6105cd565b6040516101689190611bb4565b60405180910390f35b34801561017d57600080fd5b50610186610900565b6040516101939190611bb4565b60405180910390f35b3480156101a857600080fd5b506101b1610c33565b005b3480156101bf57600080fd5b506101da60048036038101906101d59190611c02565b610d3a565b005b3480156101e857600080fd5b506101f1611027565b005b3480156101ff57600080fd5b5061020861103b565b6040516102159190611c64565b60405180910390f35b34801561022a57600080fd5b506102456004803603810190610240919061197f565b611065565b005b34801561025357600080fd5b5061025c611306565b60405161026991906119bb565b60405180910390f35b61028c60048036038101906102879190611c7f565b61130c565b005b34801561029a57600080fd5b506102b560048036038101906102b09190611cbf565b61166f565b005b6102bf6116f2565b6103e8811115610304576040517f08c379a00000000000000000000000000000000000000000000000000000000081526004016102fb90611d49565b60405180910390fd5b8060048190555050565b60045481565b606060006103226002611770565b905060006103306003611770565b61033a6002611770565b6103449190611d98565b90506000808267ffffffffffffffff81111561036357610362611dcc565b5b60405190808252806020026020018201604052801561039c57816020015b6103896118bb565b8152602001906001900390816103815790505b5090506000600190505b8481116105c257600073ffffffffffffffffffffffffffffffffffffffff166005600083815260200190815260200160002060040160009054906101000a900473ffffffffffffffffffffffffffffffffffffffff1673ffffffffffffffffffffffffffffffffffffffff16036105af5760006005600083815260200190815260200160002090508060405180610100016040529081600082015481526020016001820160009054906101000a900473ffffffffffffffffffffffffffffffffffffffff1673ffffffffffffffffffffffffffffffffffffffff1673ffffffffffffffffffffffffffffffffffffffff168152602001600282015481526020016003820160009054906101000a900473ffffffffffffffffffffffffffffffffffffffff1673ffffffffffffffffffffffffffffffffffffffff1673ffffffffffffffffffffffffffffffffffffffff1681526020016004820160009054906101000a900473ffffffffffffffffffffffffffffffffffffffff1673ffffffffffffffffffffffffffffffffffffffff1673ffffffffffffffffffffffffffffffffffffffff168152602001600582015481526020016006820160009054906101000a900460ff1615151515815260200160078201548152505083858151811061059357610592611dfb565b5b60200260200101819052506001846105ab9190611e2a565b9350505b80806105ba90611e5e565b9150506103a6565b508094505050505090565b606060006105db6002611770565b90506000806000600190505b83811161067a573373ffffffffffffffffffffffffffffffffffffffff166005600083815260200190815260200160002060040160009054906101000a900473ffffffffffffffffffffffffffffffffffffffff1673ffffffffffffffffffffffffffffffffffffffff1603610667576001836106649190611e2a565b92505b808061067290611e5e565b9150506105e7565b5060008267ffffffffffffffff81111561069757610696611dcc565b5b6040519080825280602002602001820160405280156106d057816020015b6106bd6118bb565b8152602001906001900390816106b55790505b5090506000600190505b8481116108f5573373ffffffffffffffffffffffffffffffffffffffff166005600083815260200190815260200160002060040160009054906101000a900473ffffffffffffffffffffffffffffffffffffffff1673ffffffffffffffffffffffffffffffffffffffff16036108e25760006005600083815260200190815260200160002090508060405180610100016040529081600082015481526020016001820160009054906101000a900473ffffffffffffffffffffffffffffffffffffffff1673ffffffffffffffffffffffffffffffffffffffff1673ffffffffffffffffffffffffffffffffffffffff168152602001600282015481526020016003820160009054906101000a900473ffffffffffffffffffffffffffffffffffffffff1673ffffffffffffffffffffffffffffffffffffffff1673ffffffffffffffffffffffffffffffffffffffff1681526020016004820160009054906101000a900473ffffffffffffffffffffffffffffffffffffffff1673ffffffffffffffffffffffffffffffffffffffff1673ffffffffffffffffffffffffffffffffffffffff168152602001600582015481526020016006820160009054906101000a900460ff161515151581526020016007820154815250508385815181106108c6576108c5611dfb565b5b60200260200101819052506001846108de9190611e2a565b9350505b80806108ed90611e5e565b9150506106da565b508094505050505090565b6060600061090e6002611770565b90506000806000600190505b8381116109ad573373ffffffffffffffffffffffffffffffffffffffff166005600083815260200190815260200160002060030160009054906101000a900473ffffffffffffffffffffffffffffffffffffffff1673ffffffffffffffffffffffffffffffffffffffff160361099a576001836109979190611e2a565b92505b80806109a590611e5e565b91505061091a565b5060008267ffffffffffffffff8111156109ca576109c9611dcc565b5b604051908082528060200260200182016040528015610a0357816020015b6109f06118bb565b8152602001906001900390816109e85790505b5090506000600190505b848111610c28573373ffffffffffffffffffffffffffffffffffffffff166005600083815260200190815260200160002060030160009054906101000a900473ffffffffffffffffffffffffffffffffffffffff1673ffffffffffffffffffffffffffffffffffffffff1603610c155760006005600083815260200190815260200160002090508060405180610100016040529081600082015481526020016001820160009054906101000a900473ffffffffffffffffffffffffffffffffffffffff1673ffffffffffffffffffffffffffffffffffffffff1673ffffffffffffffffffffffffffffffffffffffff168152602001600282015481526020016003820160009054906101000a900473ffffffffffffffffffffffffffffffffffffffff1673ffffffffffffffffffffffffffffffffffffffff1673ffffffffffffffffffffffffffffffffffffffff1681526020016004820160009054906101000a900473ffffffffffffffffffffffffffffffffffffffff1673ffffffffffffffffffffffffffffffffffffffff1673ffffffffffffffffffffffffffffffffffffffff168152602001600582015481526020016006820160009054906101000a900460ff16151515158152602001600782015481525050838581518110610bf957610bf8611dfb565b5b6020026020010181905250600184610c119190611e2a565b9350505b8080610c2090611e5e565b915050610a0d565b508094505050505090565b610c3b6116f2565b600047905060008111610c83576040517f08c379a0000000000000000000000000000000000000000000000000000000008152600401610c7a90611ef2565b60405180910390fd5b6000610c8d61103b565b73ffffffffffffffffffffffffffffffffffffffff1682604051610cb090611f43565b60006040518083038185875af1925050503d8060008114610ced576040519150601f19603f3d011682016040523d82523d6000602084013e610cf2565b606091505b5050905080610d36576040517f08c379a0000000000000000000000000000000000000000000000000000000008152600401610d2d90611fa4565b60405180910390fd5b5050565b610d4261177e565b60008111610d85576040517f08c379a0000000000000000000000000000000000000000000000000000000008152600401610d7c90612010565b60405180910390fd5b610d8f60026117cd565b6000610d9b6002611770565b90506040518061010001604052808281526020018573ffffffffffffffffffffffffffffffffffffffff1681526020018481526020013373ffffffffffffffffffffffffffffffffffffffff168152602001600073ffffffffffffffffffffffffffffffffffffffff16815260200183815260200160001515815260200142815250600560008381526020019081526020016000206000820151816000015560208201518160010160006101000a81548173ffffffffffffffffffffffffffffffffffffffff021916908373ffffffffffffffffffffffffffffffffffffffff1602179055506040820151816002015560608201518160030160006101000a81548173ffffffffffffffffffffffffffffffffffffffff021916908373ffffffffffffffffffffffffffffffffffffffff16021790555060808201518160040160006101000a81548173ffffffffffffffffffffffffffffffffffffffff021916908373ffffffffffffffffffffffffffffffffffffffff16021790555060a0820151816005015560c08201518160060160006101000a81548160ff02191690831515021790555060e082015181600701559050508373ffffffffffffffffffffffffffffffffffffffff166323b872dd3330866040518463ffffffff1660e01b8152600401610f8d93929190612030565b600060405180830381600087803b158015610fa757600080fd5b505af1158015610fbb573d6000803e3d6000fd5b50505050828473ffffffffffffffffffffffffffffffffffffffff16827f51f952abc16b666e917cf9a7e0f49aad730694a1b9c053652e9e3520691b515933600087600042604051611011959493929190612076565b60405180910390a4506110226117e3565b505050565b61102f6116f2565b61103960006117ed565b565b6000600160009054906101000a900473ffffffffffffffffffffffffffffffffffffffff16905090565b61106d61177e565b3373ffffffffffffffffffffffffffffffffffffffff166005600083815260200190815260200160002060030160009054906101000a900473ffffffffffffffffffffffffffffffffffffffff1673ffffffffffffffffffffffffffffffffffffffff1614611111576040517f08c379a000000000000000000000000000000000000000000000000000000000815260040161110890612115565b60405180910390fd5b6005600082815260200190815260200160002060060160009054906101000a900460ff1615611175576040517f08c379a000000000000000000000000000000000000000000000000000000000815260040161116c90612181565b60405180910390fd5b60006005600083815260200190815260200160002060020154905060006005600084815260200190815260200160002060010160009054906101000a900473ffffffffffffffffffffffffffffffffffffffff1690508073ffffffffffffffffffffffffffffffffffffffff166323b872dd3033856040518463ffffffff1660e01b815260040161120893929190612030565b600060405180830381600087803b15801561122257600080fd5b505af1158015611236573d6000803e3d6000fd5b50505050600560008481526020019081526020016000206000808201600090556001820160006101000a81549073ffffffffffffffffffffffffffffffffffffffff021916905560028201600090556003820160006101000a81549073ffffffffffffffffffffffffffffffffffffffff02191690556004820160006101000a81549073ffffffffffffffffffffffffffffffffffffffff021916905560058201600090556006820160006101000a81549060ff02191690556007820160009055505050506113036117e3565b50565b61271081565b61131461177e565b60006005600083815260200190815260200160002060050154905060006005600084815260200190815260200160002060020154905060006005600085815260200190815260200160002060030160009054906101000a900473ffffffffffffffffffffffffffffffffffffffff1690508234146113c7576040517f08c379a00000000000000000000000000000000000000000000000000000000081526004016113be906121ed565b60405180910390fd5b600015156005600086815260200190815260200160002060060160009054906101000a900460ff16151514611431576040517f08c379a000000000000000000000000000000000000000000000000000000000815260040161142890612259565b60405180910390fd5b6000612710600454856114449190612279565b61144e91906122ea565b90506000818561145e9190611d98565b90508673ffffffffffffffffffffffffffffffffffffffff166323b872dd3033876040518463ffffffff1660e01b815260040161149d93929190612030565b600060405180830381600087803b1580156114b757600080fd5b505af11580156114cb573d6000803e3d6000fd5b50505050336005600088815260200190815260200160002060040160006101000a81548173ffffffffffffffffffffffffffffffffffffffff021916908373ffffffffffffffffffffffffffffffffffffffff16021790555060016005600088815260200190815260200160002060060160006101000a81548160ff02191690831515021790555061155d60036117cd565b60008373ffffffffffffffffffffffffffffffffffffffff168260405161158390611f43565b60006040518083038185875af1925050503d80600081146115c0576040519150601f19603f3d011682016040523d82523d6000602084013e6115c5565b606091505b5050905080611609576040517f08c379a000000000000000000000000000000000000000000000000000000000815260040161160090612367565b60405180910390fd5b848873ffffffffffffffffffffffffffffffffffffffff16887f6a5f9d2b6ff1f375ebe095556dc91e68fce80a6187d7527cce81c3ab02726c9c87338b604051611655939291906123e6565b60405180910390a450505050505061166b6117e3565b5050565b6116776116f2565b600073ffffffffffffffffffffffffffffffffffffffff168173ffffffffffffffffffffffffffffffffffffffff16036116e6576040517f08c379a00000000000000000000000000000000000000000000000000000000081526004016116dd9061248f565b60405180910390fd5b6116ef816117ed565b50565b6116fa6118b3565b73ffffffffffffffffffffffffffffffffffffffff1661171861103b565b73ffffffffffffffffffffffffffffffffffffffff161461176e576040517f08c379a0000000000000000000000000000000000000000000000000000000008152600401611765906124fb565b60405180910390fd5b565b600081600001549050919050565b6002600054036117c3576040517f08c379a00000000000000000000000000000000000000000000000000000000081526004016117ba90612567565b60405180910390fd5b6002600081905550565b6001816000016000828254019250508190555050565b6001600081905550565b6000600160009054906101000a900473ffffffffffffffffffffffffffffffffffffffff16905081600160006101000a81548173ffffffffffffffffffffffffffffffffffffffff021916908373ffffffffffffffffffffffffffffffffffffffff1602179055508173ffffffffffffffffffffffffffffffffffffffff168173ffffffffffffffffffffffffffffffffffffffff167f8be0079c531659141344cd1fd0a4f28419497f9722a3daafe3b4186f6b6457e060405160405180910390a35050565b600033905090565b60405180610100016040528060008152602001600073ffffffffffffffffffffffffffffffffffffffff16815260200160008152602001600073ffffffffffffffffffffffffffffffffffffffff168152602001600073ffffffffffffffffffffffffffffffffffffffff16815260200160008152602001600015158152602001600081525090565b600080fd5b6000819050919050565b61195c81611949565b811461196757600080fd5b50565b60008135905061197981611953565b92915050565b60006020828403121561199557611994611944565b5b60006119a38482850161196a565b91505092915050565b6119b581611949565b82525050565b60006020820190506119d060008301846119ac565b92915050565b600081519050919050565b600082825260208201905092915050565b6000819050602082019050919050565b611a0b81611949565b82525050565b600073ffffffffffffffffffffffffffffffffffffffff82169050919050565b6000611a3c82611a11565b9050919050565b611a4c81611a31565b82525050565b6000611a5d82611a11565b9050919050565b611a6d81611a52565b82525050565b60008115159050919050565b611a8881611a73565b82525050565b61010082016000820151611aa56000850182611a02565b506020820151611ab86020850182611a43565b506040820151611acb6040850182611a02565b506060820151611ade6060850182611a64565b506080820151611af16080850182611a64565b5060a0820151611b0460a0850182611a02565b5060c0820151611b1760c0850182611a7f565b5060e0820151611b2a60e0850182611a02565b50505050565b6000611b3c8383611a8e565b6101008301905092915050565b6000602082019050919050565b6000611b61826119d6565b611b6b81856119e1565b9350611b76836119f2565b8060005b83811015611ba7578151611b8e8882611b30565b9750611b9983611b49565b925050600181019050611b7a565b5085935050505092915050565b60006020820190508181036000830152611bce8184611b56565b905092915050565b611bdf81611a31565b8114611bea57600080fd5b50565b600081359050611bfc81611bd6565b92915050565b600080600060608486031215611c1b57611c1a611944565b5b6000611c2986828701611bed565b9350506020611c3a8682870161196a565b9250506040611c4b8682870161196a565b9150509250925092565b611c5e81611a31565b82525050565b6000602082019050611c796000830184611c55565b92915050565b60008060408385031215611c9657611c95611944565b5b6000611ca485828601611bed565b9250506020611cb58582860161196a565b9150509250929050565b600060208284031215611cd557611cd4611944565b5b6000611ce384828501611bed565b91505092915050565b600082825260208201905092915050565b7f4665652063616e6e6f7420657863656564203130250000000000000000000000600082015250565b6000611d33601583611cec565b9150611d3e82611cfd565b602082019050919050565b60006020820190508181036000830152611d6281611d26565b9050919050565b7f4e487b7100000000000000000000000000000000000000000000000000000000600052601160045260246000fd5b6000611da382611949565b9150611dae83611949565b9250828203905081811115611dc657611dc5611d69565b5b92915050565b7f4e487b7100000000000000000000000000000000000000000000000000000000600052604160045260246000fd5b7f4e487b7100000000000000000000000000000000000000000000000000000000600052603260045260246000fd5b6000611e3582611949565b9150611e4083611949565b9250828201905080821115611e5857611e57611d69565b5b92915050565b6000611e6982611949565b91507fffffffffffffffffffffffffffffffffffffffffffffffffffffffffffffffff8203611e9b57611e9a611d69565b5b600182019050919050565b7f4e6f206665657320746f20776974686472617700000000000000000000000000600082015250565b6000611edc601383611cec565b9150611ee782611ea6565b602082019050919050565b60006020820190508181036000830152611f0b81611ecf565b9050919050565b600081905092915050565b50565b6000611f2d600083611f12565b9150611f3882611f1d565b600082019050919050565b6000611f4e82611f20565b9150819050919050565b7f5769746864726177616c206661696c6564000000000000000000000000000000600082015250565b6000611f8e601183611cec565b9150611f9982611f58565b602082019050919050565b60006020820190508181036000830152611fbd81611f81565b9050919050565b7f5072696365206d7573742062652067726561746572207468616e203000000000600082015250565b6000611ffa601c83611cec565b915061200582611fc4565b602082019050919050565b6000602082019050818103600083015261202981611fed565b9050919050565b60006060820190506120456000830186611c55565b6120526020830185611c55565b61205f60408301846119ac565b949350505050565b61207081611a73565b82525050565b600060a08201905061208b6000830188611c55565b6120986020830187611c55565b6120a560408301866119ac565b6120b26060830185612067565b6120bf60808301846119ac565b9695505050505050565b7f4f6e6c792073656c6c65722063616e2063616e63656c206c697374696e670000600082015250565b60006120ff601e83611cec565b915061210a826120c9565b602082019050919050565b6000602082019050818103600083015261212e816120f2565b9050919050565b7f43616e6e6f742063616e63656c20736f6c64206974656d730000000000000000600082015250565b600061216b601883611cec565b915061217682612135565b602082019050919050565b6000602082019050818103600083015261219a8161215e565b9050919050565b7f506c65617365207375626d6974207468652061736b696e672070726963650000600082015250565b60006121d7601e83611cec565b91506121e2826121a1565b602082019050919050565b60006020820190508181036000830152612206816121ca565b9050919050565b7f4974656d20616c726561647920736f6c64000000000000000000000000000000600082015250565b6000612243601183611cec565b915061224e8261220d565b602082019050919050565b6000602082019050818103600083015261227281612236565b9050919050565b600061228482611949565b915061228f83611949565b925082820261229d81611949565b915082820484148315176122b4576122b3611d69565b5b5092915050565b7f4e487b7100000000000000000000000000000000000000000000000000000000600052601260045260246000fd5b60006122f582611949565b915061230083611949565b9250826123105761230f6122bb565b5b828204905092915050565b7f5472616e7366657220746f2073656c6c6572206661696c656400000000000000600082015250565b6000612351601983611cec565b915061235c8261231b565b602082019050919050565b6000602082019050818103600083015261238081612344565b9050919050565b6000819050919050565b60006123ac6123a76123a284611a11565b612387565b611a11565b9050919050565b60006123be82612391565b9050919050565b60006123d0826123b3565b9050919050565b6123e0816123c5565b82525050565b60006060820190506123fb60008301866123d7565b6124086020830185611c55565b61241560408301846119ac565b949350505050565b7f4f776e61626c653a206e6577206f776e657220697320746865207a65726f206160008201527f6464726573730000000000000000000000000000000000000000000000000000602082015250565b6000612479602683611cec565b91506124848261241d565b604082019050919050565b600060208201905081810360008301526124a88161246c565b9050919050565b7f4f776e61626c653a2063616c6c6572206973206e6f7420746865206f776e6572600082015250565b60006124e5602083611cec565b91506124f0826124af565b602082019050919050565b60006020820190508181036000830152612514816124d8565b9050919050565b7f5265656e7472616e637947756172643a207265656e7472616e742063616c6c00600082015250565b6000612551601f83611cec565b915061255c8261251b565b602082019050919050565b6000602082019050818103600083015261258081612544565b905091905056fea2646970667358221220da0e411521018c04d351b1cbdb8cee56ae786adda7df1b41ccefdb3f47837bad64736f6c63430008130033",
  "linkReferences": {},
  "deployedLinkReferences": {}
}